{
  "contractName": "Helloworld",
  "abi": [
    {
      "inputs": [
        {
          "internalType": "string",
          "name": "_message",
          "type": "string"
        }
      ],
      "stateMutability": "nonpayable",
      "type": "constructor"
    },
    {
      "inputs": [],
      "name": "message",
      "outputs": [
        {
          "internalType": "string",
          "name": "",
          "type": "string"
        }
      ],
      "stateMutability": "view",
      "type": "function",
      "constant": true
    },
    {
      "inputs": [],
      "name": "owner",
      "outputs": [
        {
          "internalType": "address",
          "name": "",
          "type": "address"
        }
      ],
      "stateMutability": "view",
      "type": "function",
      "constant": true
    },
    {
      "inputs": [],
      "name": "hello",
      "outputs": [
        {
          "internalType": "string",
          "name": "",
          "type": "string"
        }
      ],
      "stateMutability": "view",
      "type": "function",
      "constant": true
    },
    {
      "inputs": [
        {
          "internalType": "string",
          "name": "_message",
          "type": "string"
        }
      ],
      "name": "setMessage",
      "outputs": [],
      "stateMutability": "payable",
      "type": "function",
      "payable": true
    }
  ],
  "bytecode": "0x608060405234801561001057600080fd5b5060405161065938038061065983398101604081905261002f916100f4565b805161004290600090602084019061005b565b5050600180546001600160a01b0319163317905561020e565b828054610067906101bd565b90600052602060002090601f01602090048101928261008957600085556100cf565b82601f106100a257805160ff19168380011785556100cf565b828001600101855582156100cf579182015b828111156100cf5782518255916020019190600101906100b4565b506100db9291506100df565b5090565b5b808211156100db57600081556001016100e0565b60006020808385031215610106578182fd5b82516001600160401b038082111561011c578384fd5b818501915085601f83011261012f578384fd5b815181811115610141576101416101f8565b604051601f8201601f19908116603f01168101908382118183101715610169576101696101f8565b816040528281528886848701011115610180578687fd5b8693505b828410156101a15784840186015181850187015292850192610184565b828411156101b157868684830101525b98975050505050505050565b600181811c908216806101d157607f821691505b602082108114156101f257634e487b7160e01b600052602260045260246000fd5b50919050565b634e487b7160e01b600052604160045260246000fd5b61043c8061021d6000396000f3fe60806040526004361061003f5760003560e01c806319ff1d2114610044578063368b87721461006f5780638da5cb5b14610084578063e21f37ce146100bc575b600080fd5b34801561005057600080fd5b506100596100d1565b6040516100669190610362565b60405180910390f35b61008261007d3660046102b8565b610163565b005b34801561009057600080fd5b506001546100a4906001600160a01b031681565b6040516001600160a01b039091168152602001610066565b3480156100c857600080fd5b50610059610191565b6060600080546100e0906103b5565b80601f016020809104026020016040519081016040528092919081815260200182805461010c906103b5565b80156101595780601f1061012e57610100808354040283529160200191610159565b820191906000526020600020905b81548152906001019060200180831161013c57829003601f168201915b5050505050905090565b6001546001600160a01b0316331461017a57600080fd5b805161018d90600090602084019061021f565b5050565b6000805461019e906103b5565b80601f01602080910402602001604051908101604052809291908181526020018280546101ca906103b5565b80156102175780601f106101ec57610100808354040283529160200191610217565b820191906000526020600020905b8154815290600101906020018083116101fa57829003601f168201915b505050505081565b82805461022b906103b5565b90600052602060002090601f01602090048101928261024d5760008555610293565b82601f1061026657805160ff1916838001178555610293565b82800160010185558215610293579182015b82811115610293578251825591602001919060010190610278565b5061029f9291506102a3565b5090565b5b8082111561029f57600081556001016102a4565b6000602082840312156102c9578081fd5b813567ffffffffffffffff808211156102e0578283fd5b818401915084601f8301126102f3578283fd5b813581811115610305576103056103f0565b604051601f8201601f19908116603f0116810190838211818310171561032d5761032d6103f0565b81604052828152876020848701011115610345578586fd5b826020860160208301379182016020019490945295945050505050565b6000602080835283518082850152825b8181101561038e57858101830151858201604001528201610372565b8181111561039f5783604083870101525b50601f01601f1916929092016040019392505050565b600181811c908216806103c957607f821691505b602082108114156103ea57634e487b7160e01b600052602260045260246000fd5b50919050565b634e487b7160e01b600052604160045260246000fdfea2646970667358221220a11ca983cfca49d646b9840f6dd1df6522aa184a1e303e63ccb6915450bc234f64736f6c63430008040033",
  "immutableReferences": {},
  "source": "pragma solidity 0.8.4;\r\n\r\ncontract Helloworld {\r\n\r\n    string public message;\r\n    address public owner;\r\n\r\n    constructor(string memory _message){\r\n        message = _message;\r\n        owner= msg.sender;\r\n    }\r\n\r\n    function hello() public view returns (string memory){\r\n\r\n    return message;}\r\n    function setMessage(string memory _message) public payable {\r\n        require(msg.sender == owner);\r\n        message = _message;\r\n    }\r\n}",
  "sourcePath": "C:\\Users\\bisht\\OneDrive\\Desktop\\TRUFFLE\\contracts\\helloworld.sol",
  "compiler": {
    "name": "solc",
    "version": "0.8.4+commit.c7e474f2.Emscripten.clang"
  },
  "schemaVersion": "3.4.10",
  "updatedAt": "2022-10-24T01:36:02.494Z",
  "networkType": "ethereum",
  "devdoc": {
    "kind": "dev",
    "methods": {},
    "version": 1
  },
  "userdoc": {
    "kind": "user",
    "methods": {},
    "version": 1
  }
}